:020000040800F2
:10000000F804002049010008C91B0008D5180008A1
:10001000651B000821050008D5200008000000002D
:10002000000000000000000000000000CD1B0008E0
:100030003905000800000000CB1B0008E11B000888
:100040006301000863010008630100086301000800
:1000500063010008630100086301000851050008FE
:1000600063010008630100086301000863010008E0
:1000700063010008630100086301000863010008D0
:1000800063010008630100086301000863010008C0
:1000900063010008630100086301000863010008B0
:1000A00063010008630100086301000863010008A0
:1000B0006301000863010008451C00086301000893
:1000C0006301000863010008630100086301000880
:1000D0006301000871200008630100086301000843
:1000E0006301000863010008630100086301000860
:1000F0006301000863010008630100086301000850
:10010000630100086301000863010008630100083F
:100110006301000863010008511C00086301000826
:10012000630100086301000863010008630100081F
:10013000DFF810D000F0B4F900480047152100089E
:10014000AFF30080F80400200648804706480047C7
:10015000FEE7FEE7FEE7FEE7FEE7FEE7FEE7FEE777
:10016000FEE7FEE7431C000831010008202A04DBFB
:10017000203A21FA02F00021704721FA02F3D04020
:10018000C2F120029140084319467047D2B201E003
:1001900000F8012B491EFBD270470022F6E710B58C
:1001A00013460A4604461946FFF7F0FF204610BDE5
:1001B00080EA010210B502F00043400022D04A005C
:1001C0001FD0010E01EB1261C0F35600C2F35602BC
:1001D00040F4000042F40002A0FB022000047F393A
:1001E000140400D0401C50EA124001D44000491EC3
:1001F000C2B20C0604EBD010401C4008802A02D08A
:1002000003E0002010BD20F00100002900DA0020EA
:10021000184310BD2DE9F04D81EA030404F0004BB2
:1002200021F0004514464FF0000A23F0004150EA47
:10023000050220D054EA01021DD0C5F30A57024638
:10024000C5F31303C1F31300C1F30A5640F480153C
:1002500043F48013A7EB0608101BD64608F2FD38BE
:1002600073EB050002D308F1010801E092185B412D
:10027000B8F1000F03DA00200146BDE8F08D002040
:100280004FF48011064684460EE0171B73EB0507FA
:1002900005D3121B63EB050306434CEA010C490826
:1002A0004FEA300092185B4150EA0107EDD152EA63
:1002B000030012D082EA040083EA0501084305D056
:1002C000101BAB4106D20122002306E000224FF0B2
:1002D000004302E06FF0010253101AEB06004CEBF2
:1002E000085110EB0A0041EB0B01BDE8F04D00F0A6
:1002F00079B80EB540F2334102910021CDE90011E9
:100300000A460B4600F07DF803B000BD00F0004245
:1003100020F00040C10DC0F3160040F400007F291A
:1003200001DA00207047962903DCC1F19601C8402C
:1003300001E096398840002AF4D04042704701F02D
:10034000004330B421F0004150EA010206D00A0D0A
:10035000A2F56072C1F31301002A02DC30BC002058
:100360007047440F44EAC104C100E01830BC00EB00
:10037000C250AFF300800029A8BF7047401C49005D
:1003800008BF20F00100704710B4B0FA80FC00FAFA
:100390000CF050EA010404BF10BC704749B1CCF125
:1003A000200421FA04F411FA0CF118BF01212143B1
:1003B0000843A3EB0C01CB1D4FEA00614FEA10206C
:1003C00042BF002010BC704700EBC350104400290E
:1003D000A4BF10BC7047401C490008BF20F00100BA
:1003E00010BC704710B5141E73F1000408DA401CED
:1003F00041F1000192185B411A4301D120F0010044
:1004000010BD2DE9F04D92469B4611B1B1FA81F233
:1004100002E0B0FA80F22032904600F053F8044631
:100420000F4640EA0A0041EA0B0153465A46084388
:1004300013D0114653EA010019D0C8F140025046CA
:10044000FFF794FE05460E4650465946424600F0D8
:1004500039F8084305D0012004E020463946BDE8BC
:10046000F08D0020054346EAE0762C4337430A9896
:100470006305E40AA0EB08000022FD0A44EA4754A1
:100480000A3002D500200146E9E70105101969414B
:10049000DDE9084500196941BDE8F04DA2E700001B
:1004A000064C074D06E0E06840F0010394E80700C1
:1004B00098471034AC42F6D3FFF73EFE18220008EE
:1004C00038220008202A04DB203A00FA02F100203A
:1004D00070479140C2F1200320FA03F31943904082
:1004E0007047000000B585B0002002900A4881697D
:1004F00041F0100181618069694600F010000490AC
:10050000082000900120019002200390034800F091
:1005100035F905B000BD0000001002400010014098
:10052000FEE7000003494968401A00F40040000A51
:100530007047000014000020704700B501F048FB30
:1005400002461046FFF7EEFF0028FAD000BD00007B
:1005500070B50A20FFF7F1FF134C206880071ED505
:10056000124D01202870124E0221304600F002FA8E
:100570000028F9D10F4E30684FF4AA714843400863
:10058000FFF7B7FE00220C4BFFF744FEFFF7D7FE44
:100590000A49086000203060287002202060BDE811
:1005A0007040022000F0DEB8140401401400002066
:1005B000001001401C0000200000694010000020D5
:1005C00072B6FEE710B590F821100022022905D07E
:1005D0000421816380F82020012010BD01680B6890
:1005E00023F00E030B6001680B6823F001030B601E
:1005F00090F84030C46B012101FA03F3636080F886
:10060000211080F82020104610BD00002DE9F05F79
:1006100090F821100024022903D0042181630124D1
:1006200085E001680A6822F00E020A6001680A6823
:1006300022F001020A603F4E3E4FB215DFF8F4C0CF
:10064000DFF8F090DFF8ECA0DFF8E8B0DFF8E4E0E6
:100650000168783F13011502ACF1640CA9F150094F
:10066000AAF13C0AABF1280BAEF1140E4FF480183E
:10067000B14227D9B9420ED0614512D049451DD0AB
:10068000514518D0594518D0714501D1424615E061
:10069000294EB14201D1012210E0274E1436B14259
:1006A00001D110220AE0244E2836B14206D0224A57
:1006B0003C32914201D11A4600E02A461E49091FE8
:1006C0000A602BE0B94213D0614517D0494522D0CA
:1006D00051451DD059451DD0714501D142461AE002
:1006E000B14202D14FF0807215E0134EB14201D1F8
:1006F000012210E0104E1436B14201D110220AE05E
:100700000D4E2836B14206D00B4A3C32914201D1FF
:100710001A4600E02A46074980394A60012180F8DC
:100720002110002180F82010416B01B1884720463C
:10073000BDE8F09F800002400804024070B5044606
:1007400000F022F90546601C02D0044800780444F9
:1007500000F01AF9401BA042FAD370BD000000203F
:1007600070470000044910B50A68024202D00860D0
:10077000FFF7F6FF10BD0000140401402DE9F84F0B
:10078000DFF8C891002409F1040A0AF1040B23469A
:100790000F270BF1040ED1E00125A54006EA050262
:1007A000AA4276D1DFF8A8C14E68A6EB0C086645D0
:1007B0002BD00DDC032E34D005DC36B3012E19D03E
:1007C000022E2FD11BE0112E16D0122E2AD119E0A5
:1007D000B8F5881F19D006DCB8F5803F15D0B8F5FC
:1007E000801F1FD111E0B8F5001F0ED0B8F5041F0F
:1007F00018D10AE0CB6815E0CB681B1D12E0CB686E
:1008000008330FE0CB680C330CE08B682BB1012B65
:100810004FF0080303D0456104E0042302E00561C2
:1008200000E00023FF2A01D8064601E000F104069B
:100830004FEA840501D9A5F12005D6F8008007FA12
:1008400005FC28EA0C0803FA05F548EA0508C6F88D
:1008500000804D68ED0070D53E4DAE6946F0010652
:10086000AE61AD6924F0030605F0010500953A4D2F
:1008700006EB050CDCF80850A607360F07FA06F859
:1008800025EA0805DFF8D480404503D14FF0000881
:1008900025E052E0DFF8C880404502D14FF0010862
:1008A0001DE0DFF8C080404502D14FF0020816E09D
:1008B000DFF8B480404502D14FF003080FE0DFF8C5
:1008C000AC80404502D14FF0040808E0DFF8A0807A
:1008D000404502D14FF0050801E04FF0060808FA44
:1008E00006F848EA0508CCF808804D68D9F8006099
:1008F000ED034D4601D5164300E096432E604D684A
:10090000DAF80060AD03554601D5164300E0964382
:100910002E604D68DBF80060ED025D4601D51643A0
:1009200000E096432E604D68DEF80060AD0275462B
:1009300001D5164300E096432E60641C0A681646F3
:10094000E2407FF429AFBDE8F88F000000040140C9
:10095000000011100010024000000140000801409A
:10096000000C01400010014000140140001801403B
:10097000001C01408068084000D0012070470AB187
:10098000016170470904FBE7014880687047000077
:10099000000000200248816802781144816070479D
:1009A00000000020074810B5016841F01001016007
:1009B000032000F075F80F2000F006F800F024F88E
:1009C000002010BD0020024070B50D4D04464FF4CC
:1009D0007A712878B1FBF0F00A490968B1FBF0F0B0
:1009E00000F0ECFA48B9102C07D200222146501E24
:1009F00000F036F800206C6070BD012070BD000072
:100A0000000000200C0000200C4808B5816941F06E
:100A100001018161816901F001010091C16941F029
:100A20008051C161C06900F0805000900448416865
:100A300021F0E06141F00071416008BD001002400A
:100A400000000140002809DB00F01F020121914055
:100A50004009800000F1E020C0F80011704700005C
:100A6000F0B40E4B1B680C46C3F30223C3F1070519
:100A7000042D00D90425191D072901D2002300E007
:100A8000DB1E012606FA05F1491E214099409E40D1
:100A9000761E16403143F0BC01F01DBB0CED00E0AA
:100AA000064900F0070208684FF6FF03184040EAC5
:100AB0000220034A10430860704700000CED00E07C
:100AC0000000FA052DE9F0470F46050061D0434EBE
:100AD000306800F00700B84209D2306820F0070003
:100AE00038433060306800F00700B84251D12868C0
:100AF0003B4C810712D5400703D5606840F4E060A5
:100B000060602878000703D5606840F4605060603A
:100B10006068A96820F0F000084360602878C0078A
:100B200028D06868012810D02168022810D08907D1
:100B300000292EDA616821F0030101436160FFF7AB
:100B400023FF804641F288390DE021688903EFE7F1
:100B50008901EDE7FFF718FFA0EB0801494502D92D
:100B60000320BDE8F0876068696800F00C00B0EB16
:100B7000810FEFD1306800F00700B8420BD9306820
:100B800020F0070038433060306800F00700B842BA
:100B900001D00120E5E72878400705D56068E968BD
:100BA00020F4E060084360602878000706D560689C
:100BB000296920F4605040EAC100606000F038F814
:100BC0006168084AC1F30311515CC84006490860D6
:100BD00006480068FFF7F8FE0020C2E70020024048
:100BE00000100240002200080C0000200400002039
:100BF0000448054900684968044AC1F30221515C70
:100C0000C84070470C00002000100240102200086D
:100C10000448054900684968044AC1F3C221515C8F
:100C2000C84070470C00002000100240102200084D
:100C300012A185B00FC98DE80F0014A0144A0068F6
:100C400004905168134801F00C03042B10D0082BBA
:100C50000ED1C1F38343C9031DF803000AD55168BF
:100C600004AAC1F34041515C0A4A5043B0FBF1F081
:100C700005B0704708494843FAE70000020304053D
:100C8000060708090A0B0C0D0E0F101001020000D8
:100C90000010024000127A0000093D002DE9F84FD3
:100CA000040070D02078C04DC00749D06868C0F3F8
:100CB0008100012807D06868C0F38100022809D1AB
:100CC0006868C00306D52868800339D560680028A5
:100CD000E7D035E06068B0F5803F0BD010B1B0F5DB
:100CE000A02F11D0286820F480302860286820F4D4
:100CF000802002E0286840F480302860606890B16D
:100D0000FFF742FE06460AE0286840F4802028608B
:100D1000F0E700BFFFF738FE801B642873D828680F
:100D20008003F7D50CE0FFF72FFE064605E000BF75
:100D3000FFF72AFE801B6428F0D828688003F7D4C8
:100D400020789A4E80074FF001094FF0000839D5FE
:100D5000686810F00C0F07D06868C0F381000228A3
:100D600009D16868C00306D42868800714D52069B3
:100D7000012808D110E02069B0B1C6F80090FFF753
:100D800003FE074605E00AE1FFF7FEFDC01B02284F
:100D9000C4D828688007F7D52868616920F0F80072
:100DA00040EAC10028600DE0C6F80080FFF7ECFDC6
:100DB000074604E0FFF7E8FDC01B022823D8286897
:100DC0008007F7D4207800072CD57948A169D9B1DC
:100DD000C0F80090FFF7D8FD074604E0FFF7D4FD08
:100DE000C01B02280FD8686A8007F7D571484FF4F6
:100DF000FA510068B0FBF1F0009000BF0098411E6E
:100E00000091FAD20EE080E0C0F80080FFF7BCFD50
:100E1000074604E0FFF7B8FDC01B022875D8686AD2
:100E20008007F7D42078400760D5E8690027C00024
:100E300008D4E86940F08050E861E869012700F0D3
:100E4000805000905C480168C90513D4016883464E
:100E500041F480710160FFF797FD824606E000BF14
:100E6000FFF792FDA0EB0A0064284ED8DBF80000E3
:100E7000C005F5D5E06801280AD008B1052813D0CF
:100E8000286A20F001002862286A20F0040002E0AD
:100E9000286A40F001002862E06841F2883B98B17E
:100EA000FFF772FD82460BE0286A40F004002862DA
:100EB000EEE700BFFFF768FDA0EB0A0159455AD8DD
:100EC000286A8007F6D50CE0FFF75EFD824605E054
:100ED000FFF75AFDA0EB0A0159454CD8286A800754
:100EE000F6D41FB1E86920F08050E861E06988B36A
:100EF0006968C1F38101022944D00228C6F86080E4
:100F000004D0FFF741FD044638E034E0FFF73CFD34
:100F1000074604E0FFF738FDC01B02282BD82868DD
:100F20008001F7D4206AB0F5803F05D16868A168D8
:100F300020F4003008436860D4E908010843696878
:100F400021F4741108436860C6F86090FFF71CFD37
:100F5000044606E025E000BFFFF716FD001B02284F
:100F600009D828688001F7D51BE000BFFFF70CFD0A
:100F7000001B022802D90320BDE8F88F28688001F1
:100F8000F4D40EE00128F7D06868226A00F48031BA
:100F9000914204D1616A00F47010884201D00120AE
:100FA000EAE70020E8E700000010024000004242AB
:100FB000800442420C0000200070004010B5401E2A
:100FC000B0F1807F01D3012010BD4FF0E0246061BB
:100FD0000F21601701F07FF80020A0610720206139
:100FE000002010BD7047704770B590F83C20012A72
:100FF0002CD0012480F83C40022280F83D20036878
:101000005A689D6822F070060A6832435A60104B95
:1010100002689A420ED00F4B9A420BD0B2F1804F29
:1010200008D00D4B9A4205D00C4B9A4202D00C4B83
:101030009A4204D1496825F080031943916080F8F1
:101040003D40002180F83C10084670BD022070BD74
:10105000002C014000340140000400400008004022
:10106000000C004010B5040003D094F83D0010B10E
:1010700007E0012010BD002084F83C00204600F06D
:101080001FF8022084F83D00211D206800F0E6FDD5
:10109000012084F8460084F83E0084F83F0084F87C
:1010A000400084F8410084F8420084F8430084F84A
:1010B000440084F8450084F83D00002010BD000085
:1010C00008B500680B49884212D10B48C16941F04C
:1010D0001001C161C069002200F0100000901146AB
:1010E0003620FFF7BDFCBDE808403620FFF7AABC5C
:1010F00008BD0000001000400010024090F83D10B4
:10110000012901D001207047022180F83D100168BB
:10111000CA6842F00102CA6000680E4988420ED0D7
:101120000D4988420BD0B0F1804F08D00B4988425E
:1011300005D00B49884202D00A49884204D181680F
:1011400001F00701062903D0016841F001010160A7
:1011500000207047002C0140003401400004004092
:1011600000080040000C0040704770B5044600685D
:1011700001694FF00005C943890715D4C168C94307
:10118000890711D4E91E0161012020772068806958
:101190008007204602D0FFF7E7FF04E000F0BEF82A
:1011A000204600F06BF9257720680169C94349079B
:1011B00017D4C168C943490713D46FF00401016112
:1011C000022020772068806910F4407F204602D0FA
:1011D000FFF7CAFF04E000F0A1F8204600F04EF946
:1011E000257720680169C943090716D4C168C94336
:1011F000090712D46FF008010161042020772068EC
:10120000C0698007204602D0FFF7AEFF04E000F07F
:1012100085F8204600F032F9257720680169C94336
:10122000C90617D4C168C943C90613D46FF01001A9
:101230000161082020772068C06910F4407F2046B3
:1012400002D0FFF791FF04E000F068F8204600F0BC
:1012500015F9257720680169C943C90708D1C16814
:10126000C943C90704D1891E0161204600F0A0F9D5
:1012700020680169C943090609D4C168C943090640
:1012800005D46FF0800101612046FFF7ABFE2068B6
:101290000169C943490609D4C168C943490605D44F
:1012A0006FF040010161204600F096F92068016965
:1012B000C94389060BD4C168C943890607D46FF0B6
:1012C000200101612046BDE87040FFF78CBE70BD73
:1012D00000B585B000210091019102910391006851
:1012E0000B49884212D10B48816941F008018161A4
:1012F0008069694600F0080004904FF44070009047
:101300000220019003900448FFF738FA05B000BDB1
:101310000008004000100240000C0140704770B50A
:10132000044690F83C000D4601280AD0012084F8BC
:101330003C0042B1042A18D0082A2AD00C2A4DD1E8
:1013400039E0022070BD206800F0DCFC2068816973
:1013500041F0080181612068816921F00401816107
:10136000206881692A69114311E0206800F0FAFCC5
:101370002068816941F4006181612068816921F4FC
:1013800080618161206881692A6941EA0221816165
:1013900024E0206800F01CFD2068C16941F00801CC
:1013A000C1612068C16921F00401C1612068C1697F
:1013B0002A69114311E0206800F03EFD2068C169F0
:1013C00041F40061C1612068C16921F48061C1619B
:1013D0002068C1692A6941EA0221C161002084F8BC
:1013E0003C0070BD10B5040003D094F83D0010B16E
:1013F00007E0012010BD002084F83C00204600F0EA
:101400001FF8022084F83D00211D206800F026FC12
:10141000012084F8460084F83E0084F83F0084F8F8
:10142000400084F8410084F8420084F8430084F8C6
:10143000440084F8450084F83D00002010BD000001
:1014400008B500680B49884212D10B48C16941F0C8
:101450000401C161C069002200F00400009011463F
:101460001E20FFF7FDFABDE808401E20FFF7EABA8C
:1014700008BD000000080040001002407047000056
:1014800010B50446022249B104290ED0082913D010
:1014900094F84100012816D0012010BD94F83E00B8
:1014A0000128F9D184F83E200FE094F83F0001288C
:1014B000F2D184F83F2008E094F840000128EBD1F5
:1014C00084F8402001E084F841200122206800F0E7
:1014D0000BFC13492068134A884201D0904203D183
:1014E000436C43F400434364206888420DD090422B
:1014F0000BD0B0F1804F08D00B49884205D00B4982
:10150000884202D00A49884204D1816801F007016B
:10151000062903D0016841F001010160002010BDDF
:10152000002C01400034014000040040000800404D
:10153000000C004030B504460D460068002200F063
:10154000D3FB194B41F2111120688A10984202D046
:10155000164B984209D1036A0B4206D1036A134223
:1015600003D1436C23F4004343642068036A0B42B5
:1015700006D1016A114203D1016821F00101016025
:1015800001203DB1042D08D0082D09D084F8410078
:10159000002030BD84F83E00FAE784F83F00F7E70A
:1015A00084F84000F4E70000002C014000340140C2
:1015B00000680749884209D106484168491C4160D2
:1015C0000178002902D08168491C816070470000C1
:1015D0000010004014000020704770477047000062
:1015E000F8B5026804461068D168536910F00F0F0F
:1015F0004FF0000553D003F0010601F49077374314
:101600005FD0C20705D0CA0503D5226C42F00102A3
:101610002264420705D5DA0703D0226C42F00202A9
:101620002264820705D5DA0703D0226C42F0040257
:101630002264020707D501F02002324303D0226C56
:1016400042F008022264226C002A34D0800604D5BD
:10165000880602D5204600F037FC20684069216CDE
:10166000C0F38010090700D430B3204600F014FC0A
:101670002068416949061BD5416921F0400141615B
:10168000A06BA8B158494163A06BFEF7BFFF0028CB
:1016900011D0A06B416B01B0BDE8F0400847830654
:1016A0000FD58B060DD52046BDE8F84000F00CBCE8
:1016B0002046FFF793FFF8BD2046FFF78FFF256414
:1016C000F8BD266B2023012E52D1C60650D5CE067A
:1016D0004ED5106850680090506940062AD5A16B1D
:1016E000086840680004000CEAD0A68D8642E7D95D
:1016F000E0858869202818D0D06820F48070D060F8
:101700002068416921F0010141612068416921F0AF
:101710004001416184F83E3025632068C16821F0B2
:101720001001C160A06BFEF74DFFA08DE18D401A46
:1017300081B219E0A08DE18D401A81B2E08D0028C0
:10174000BED00029BCD0D06820F49070D060206852
:10175000426922F00102426184F83E30256320682C
:10176000C26822F01002C2602046FFF736FFF8BDC3
:1017700005062BD50D0629D594F83D002128F6D174
:10178000A068B0F5805F01D12069B0B1206A411C2A
:101790002162216800784860E08C401E0004000C43
:1017A000E084E4D12068C16821F08001C160206834
:1017B000C16841F04001C160F8BD206A0088C0F3F3
:1017C00008005060206A801C2062E5E74006F3D5DF
:1017D0004806F1D5D168204621F04001D16084F857
:1017E0003D3000F076F8F8BD891E000870B50400A1
:1017F00004D094F83D00002510B106E0012070BD32
:1018000084F83C50204600F023F8242084F83D0062
:101810002068C16821F40051C160204600F0B0FB8F
:101820002068016921F4904101612068416921F03B
:101830002A0141612068C16841F40051C1602564FA
:10184000202084F83D0084F83E00002070BD000098
:1018500030B585B00024009401940294039400688C
:10186000184988422CD11848816941F4804181612E
:10187000816901F480410491816941F00401816131
:101880008069124D00F0040004904FF40070009045
:10189000022001900320039069462846FEF76EFF60
:1018A0002815CDE90004694628460294FEF766FF34
:1018B000002201212520FFF7D3F82520FFF7C2F8E9
:1018C00005B030BD00380140001002400008014062
:1018D00070477047FEE700000B4800B5816985B08E
:1018E00041F0100181618069694600F010000490A8
:1018F0000420009000200190012002900348FEF790
:101900003DFF05B000BD0000001002400010014086
:1019100030B5164885B0816941F004018161816963
:1019200001F004010491816941F00801816180693D
:101930000F4D00F00800049020200090012001903D
:10194000002002900220039069462846FEF716FF09
:101950004024694607480094FEF710FF6946284670
:101960000094FEF70BFF05B030BD000000100240F0
:1019700000080140000C0140134800B5816985B0A2
:1019800041F004018161816901F0040104918169E0
:1019900041F0080181618069694600F00800049007
:1019A00080200090012001900020029002200390EE
:1019B0000648FEF7E3FE1020009069460448FEF753
:1019C000DDFE05B000BD000000100240000C01402B
:1019D0000008014000B585B000200290039019482E
:1019E000816941F020018161816901F02001049148
:1019F000816941F010018161816901F01001049158
:101A0000816941F004018161816901F0040104915F
:101A1000816941F0080181618069694600F0080030
:101A2000049002200090084801900848FEF7A6FEA6
:101A300000220F210720FFF713F80720FFF702F815
:101A400005B000BD00100240000011100010014060
:101A500010B58AB0002407941C2168460894FEF74C
:101A60009CFB1B48194901600121C0E9011440F2A7
:101A7000EE21C0E9031480218161FFF7B3FC08B1B6
:101A8000FEF79EFD079407A911480894FFF7ACFAEA
:101A900008B1FEF795FD602000909620CDE9010485
:101AA000082269460A480494FFF739FC08B1FEF79A
:101AB00087FD0C2269460648FFF731FC08B1FEF7A6
:101AC0007FFD0348FFF704FC0AB010BD000800408A
:101AD000200000201CB50024114800940F490194F7
:101AE00001600121C0E9011440F207718461C16005
:101AF000FFF7B8FA08B1FEF763FD0094694608489D
:101B00000194FFF771FA08B1FEF75AFD0448FFF798
:101B1000F5FA002801D0FEF753FD1CBD001000406F
:101B20006800002010B50E4C0C480C2120604FF4CA
:101B3000E13060600020A060E060C4E90401A061C1
:101B4000E0612046FFF752FE08B1FEF739FD20683C
:101B5000C16841F02001C16010BD000000380140A3
:101B6000B0000020FEE7000008210148FFF7E2BCBA
:101B7000200000200C210148FFF7DCBC20000020E1
:101B800008210148FFF77CBC200000200C210148FF
:101B9000FFF776BC2000002040F2EE21884200D3FF
:101BA000084602490968C863704700002000002009
:101BB00040F2EE21884200D30846024909680864D1
:101BC0007047000020000020FEE7704770470000CB
:101BD000024949680844401E704700001400002074
:101BE000FEF7D8BE30B58FB028216846FEF7D5FA8B
:101BF00014210AA8FEF7D1FA01210804CDE900104A
:101C00000024029402250491CDE907504FF4E0101E
:101C100009906846FFF742F808B172B6FEE70F2058
:101C2000CDE90A054FF48060CDE90C4002210AA8F5
:101C30000E94FEF747FF002801D072B6FEE70FB002
:101C400030BD70470148FFF790BA00002000002027
:101C50000148FFF78ABA000068000020F0B502686A
:101C60001C4B1D4D1D4E1E4F1E4C4FF0804C98427C
:101C700009D0A04207D0604505D0A84203D0B042A9
:101C800001D0B84204D122F0700E4A6842EA0E0236
:101C9000984209D0A04207D0604505D0A84203D0A1
:101CA000B04201D0B84203D122F44075CA682A4339
:101CB0004D6922F080022A4302608A68C2620A6883
:101CC0008262984201D0A04201D1096901630121D9
:101CD0004161F0BD002C01400004004000080040BC
:101CE000000C00400034014010B501F01F03012139
:101CF000046A99408C430462016A9A40114301626C
:101D000010BD0000F0B5026A22F001020262036A0F
:101D100042688469124E24F073050C682C4323F04A
:101D200002058B682B430D4DA84201D0B04205D16E
:101D300023F00807CB683B4323F00403A84201D0FB
:101D4000B04205D14D6922F4407215438A692A4395
:101D500042608461496841630362F0BD002C014028
:101D600000340140F0B5026A22F010020262026AF9
:101D7000436884690D6824F4E64444EA05248D68C8
:101D800022F0200242EA05120F4D104EA84201D067
:101D9000B04206D1CF6822F0800242EA071222F058
:101DA0004002A84201D0B04207D14D6923F44063FC
:101DB00043EA85038D6943EA85034360846149688A
:101DC00081630262F0BD0000002C0140003401403C
:101DD000F0B5026A22F480720262026A4368C46942
:101DE00022F4007224F073050C68124E2C438D68A7
:101DF00042EA05220E4DA84201D0B04206D1CF687A
:101E000022F4006242EA072222F48062A84201D052
:101E1000B04207D14D6923F4405343EA05138D695D
:101E200043EA05134360C4614968C1630262F0BDBF
:101E3000002C01400034014030B5026A22F4805287
:101E40000262046A4268C3690D6823F4E64343EA08
:101E500005238D6824F4005444EA0534084DA84253
:101E600002D0084DA84204D14D6922F4804242EAD2
:101E700085124260C36149680164046230BD00009C
:101E8000002C01400034014010B5406A0021C1859A
:101E9000C184FFF7A3FB10BD0168CA6822F49072E9
:101EA000CA6001684A6922F001024A61016B012996
:101EB00004D10168CA6822F01002CA60202180F8AB
:101EC0003E1000210163704708B590F83E102229AA
:101ED00001D0022008BD82684FF480539A4201D19C
:101EE000016921B1816A9A421BD04AB10AE00268B5
:101EF000816A5268C2F308020A80816A891C08E07C
:101F0000026972B10268526802F07F020A70816A47
:101F1000491C8162C18D491E0904090CC18503D089
:101F200019E002685268F1E70168CA6822F02002ED
:101F3000CA600168CA6822F48072CA6001684A698E
:101F400022F001024A61202180F83E10016B012934
:101F500003D0FFF7BDFC002008BD0021016301682C
:101F6000CA6822F01002CA6001680A68D20602D567
:101F70000A6849680091818DFFF72FFBEBE70000AD
:101F800070B5044600680169E26821F440511143CC
:101F900001612169A0680843616908432168CA6832
:101FA00041F20C639A430243CA6020684169A26906
:101FB00021F44071114341611E492068884202D1D9
:101FC000FEF726FE01E0FEF713FE00EBC00101EB79
:101FD0000012606864218000B2FBF0F3B3FBF1F300
:101FE0006FF018067343B2FBF0F5B2FBF0F605EBA9
:101FF0008305322303EB0515B5FBF1F5B6FBF1F6CE
:1020000005F0F00505EB0615B2FBF0F6B2FBF0F0BB
:10201000B0FBF1F06FF01802504306EB800003EBC9
:102020000010B0FBF1F0216800F00F002844886038
:1020300070BD0000003801400B4800B5816985B0D3
:1020400041F0100181618069694600F01000049040
:102050000120009001900290022003900348FEF7B7
:102060008DFB05B000BD00000010024000100140D3
:1020700010B50648FFF7B4FA044800680168C94380
:10208000890602D44168C9B2416010BDB000002089
:1020900010B50D4C012211462046FEF770FC1420AD
:1020A000FEF74BFA002201212046FEF768FC0120D2
:1020B000FEF744FB064805490068FEF779F8BDE8DD
:1020C0001040FEF723B9000000100140000020413D
:1020D00010000020FEE70907090E002804DB00F1CC
:1020E000E02080F80014704700F00F0000F1E020BD
:1020F00080F8141D704702E008C8121F08C1002AAA
:10210000FAD170477047002001E001C1121F002A78
:10211000FBD17047FEF746FCFFF764FDFFF75AFC62
:10212000FFF796FCFFF7FEFCFFF7D4FCFFF7F0FB90
:10213000FFF7D2FBFEF7D6F9FFF71EFCFFF77CFF97
:102140002C4C2D4D4FF47A77012240212046FEF78A
:1021500016FC002240212846FEF711FC3E46384678
:10216000FEF7EBF9012240212846FEF708FC002289
:1021700040212046FEF703FC3046FEF7DEF9FFF76C
:1021800087FF06466420FEF7D9FA0A2E22DD4FF4B7
:1021900096763046FFF700FD3046FFF709FDFFF762
:1021A000EFFC002280212046FEF7E9FBFFF7EEFC62
:1021B000002210212846FEF7E2FB104E01220821E2
:1021C0003046FEF7DCFB6420FEF7B8FA0022082157
:1021D00030460BE0FFF7C8FC002280212046FEF7C6
:1021E000CEFBFFF7C7FC002210212846FEF7C7FBF5
:1021F000AAE70000000C0140000801400010014067
:1022000000000000000000000102030406070809A6
:102210000000000001020304382200080000002032
:1022200020000000F62000085822000820000020AE
:10223000D804000006210008010000001000000082
:10224000000000000024F400000000000000000076
:08225000000000000000000086
:0400000508000131BD
:00000001FF
